{
  "_format": "hh3-artifact-1",
  "contractName": "SmartAccount",
  "sourceName": "contracts/SmartAccount.sol",
  "abi": [
    {
      "inputs": [
        {
          "internalType": "address",
          "name": "sender",
          "type": "address"
        }
      ],
      "name": "AccountUnauthorized",
      "type": "error"
    },
    {
      "inputs": [],
      "name": "OutOfRangeAccess",
      "type": "error"
    },
    {
      "inputs": [],
      "name": "UnsupportedExecutionMode",
      "type": "error"
    },
    {
      "anonymous": false,
      "inputs": [
        {
          "indexed": true,
          "internalType": "address",
          "name": "wallet",
          "type": "address"
        },
        {
          "indexed": false,
          "internalType": "uint256",
          "name": "validUntil",
          "type": "uint256"
        }
      ],
      "name": "SessionKeyGranted",
      "type": "event"
    },
    {
      "anonymous": false,
      "inputs": [
        {
          "indexed": true,
          "internalType": "address",
          "name": "wallet",
          "type": "address"
        }
      ],
      "name": "SessionKeyRevoked",
      "type": "event"
    },
    {
      "inputs": [],
      "name": "entryPoint",
      "outputs": [
        {
          "internalType": "contract IEntryPoint",
          "name": "",
          "type": "address"
        }
      ],
      "stateMutability": "view",
      "type": "function"
    },
    {
      "inputs": [
        {
          "internalType": "bytes32",
          "name": "mode",
          "type": "bytes32"
        },
        {
          "internalType": "bytes",
          "name": "executionData",
          "type": "bytes"
        }
      ],
      "name": "execute",
      "outputs": [],
      "stateMutability": "payable",
      "type": "function"
    },
    {
      "inputs": [
        {
          "internalType": "uint192",
          "name": "key",
          "type": "uint192"
        }
      ],
      "name": "getNonce",
      "outputs": [
        {
          "internalType": "uint256",
          "name": "",
          "type": "uint256"
        }
      ],
      "stateMutability": "view",
      "type": "function"
    },
    {
      "inputs": [],
      "name": "getNonce",
      "outputs": [
        {
          "internalType": "uint256",
          "name": "",
          "type": "uint256"
        }
      ],
      "stateMutability": "view",
      "type": "function"
    },
    {
      "inputs": [
        {
          "internalType": "address",
          "name": "wallet",
          "type": "address"
        },
        {
          "internalType": "uint256",
          "name": "validSeconds",
          "type": "uint256"
        }
      ],
      "name": "grantSessionKey",
      "outputs": [],
      "stateMutability": "nonpayable",
      "type": "function"
    },
    {
      "inputs": [
        {
          "internalType": "address",
          "name": "wallet",
          "type": "address"
        }
      ],
      "name": "revokeSessionKey",
      "outputs": [],
      "stateMutability": "nonpayable",
      "type": "function"
    },
    {
      "inputs": [
        {
          "internalType": "bytes32",
          "name": "mode",
          "type": "bytes32"
        }
      ],
      "name": "supportsExecutionMode",
      "outputs": [
        {
          "internalType": "bool",
          "name": "result",
          "type": "bool"
        }
      ],
      "stateMutability": "view",
      "type": "function"
    },
    {
      "inputs": [
        {
          "components": [
            {
              "internalType": "address",
              "name": "sender",
              "type": "address"
            },
            {
              "internalType": "uint256",
              "name": "nonce",
              "type": "uint256"
            },
            {
              "internalType": "bytes",
              "name": "initCode",
              "type": "bytes"
            },
            {
              "internalType": "bytes",
              "name": "callData",
              "type": "bytes"
            },
            {
              "internalType": "bytes32",
              "name": "accountGasLimits",
              "type": "bytes32"
            },
            {
              "internalType": "uint256",
              "name": "preVerificationGas",
              "type": "uint256"
            },
            {
              "internalType": "bytes32",
              "name": "gasFees",
              "type": "bytes32"
            },
            {
              "internalType": "bytes",
              "name": "paymasterAndData",
              "type": "bytes"
            },
            {
              "internalType": "bytes",
              "name": "signature",
              "type": "bytes"
            }
          ],
          "internalType": "struct PackedUserOperation",
          "name": "userOp",
          "type": "tuple"
        },
        {
          "internalType": "bytes32",
          "name": "userOpHash",
          "type": "bytes32"
        },
        {
          "internalType": "uint256",
          "name": "missingAccountFunds",
          "type": "uint256"
        }
      ],
      "name": "validateUserOp",
      "outputs": [
        {
          "internalType": "uint256",
          "name": "",
          "type": "uint256"
        }
      ],
      "stateMutability": "nonpayable",
      "type": "function"
    },
    {
      "stateMutability": "payable",
      "type": "receive"
    }
  ],
  "bytecode": "0x6080604052348015600e575f5ffd5b50610d2d8061001c5f395ff3fe60806040526004361061007c575f3560e01c8063b0d691fe1161004c578063b0d691fe14610118578063d03c791414610146578063d087d28814610175578063e9ae5c5314610189575f5ffd5b8063031dda791461008757806319822f7c146100a85780633e1b0812146100da57806384f4fc6a146100f9575f5ffd5b3661008357005b5f5ffd5b348015610092575f5ffd5b506100a66100a13660046108e4565b61019c565b005b3480156100b3575f5ffd5b506100c76100c236600461090c565b610240565b6040519081526020015b60405180910390f35b3480156100e5575f5ffd5b506100c76100f436600461095b565b610275565b348015610104575f5ffd5b506100a6610113366004610988565b610308565b348015610123575f5ffd5b5060405173433709009b8330fda32311df1c2afa402ed8d00981526020016100d1565b348015610151575f5ffd5b506101656101603660046109a1565b6103b1565b60405190151581526020016100d1565b348015610180575f5ffd5b506100c7610408565b6100a66101973660046109b8565b610417565b333014806101bd57503373433709009b8330fda32311df1c2afa402ed8d009145b6101fd5760405162461bcd60e51b815260206004820152600c60248201526b155b985d5d1a1bdc9a5e995960a21b60448201526064015b60405180910390fd5b604051806020016040528082426102149190610a43565b905261021e61058e565b6001600160a01b039093165f9081526020939093526040909220915190915550565b5f6102496105ef565b5f610262858561025d610100830183610a56565b610632565b905061026d83610653565b949350505050565b5f73433709009b8330fda32311df1c2afa402ed8d009604051631aab3f0d60e11b81523060048201526001600160c01b03841660248201526001600160a01b0391909116906335567e1a90604401602060405180830381865afa1580156102de573d5f5f3e3d5ffd5b505050506040513d601f19601f820116820180604052508101906103029190610aa0565b92915050565b3330148061032957503373433709009b8330fda32311df1c2afa402ed8d009145b6103645760405162461bcd60e51b815260206004820152600c60248201526b155b985d5d1a1bdc9a5e995960a21b60448201526064016101f4565b61036c61058e565b6001600160a01b0382165f81815260209290925260408083208390555190917f17c796fb82086b3c9effaec517342e5ca9ed8fd78c339137ec082f748ab60cbe91a250565b5f5f5f5f6103be85610676565b50919450925090506001600160f81b03198316600160f81b1480156103eb57506001600160f81b03198216155b80156103ff57506001600160e01b03198116155b95945050505050565b5f6104125f610275565b905090565b5f61042061058e565b335f9081526020919091526040902080549091504211156104755760405162461bcd60e51b815260206004820152600f60248201526e14d95cdcda5bdb88195e1c1a5c9959608a1b60448201526064016101f4565b5f61048283850185610b25565b90505f5b8151811015610586575f8282815181106104a2576104a2610ca6565b60200260200101515f01516001600160a01b03168383815181106104c8576104c8610ca6565b6020026020010151602001518484815181106104e6576104e6610ca6565b6020026020010151604001516040516104ff9190610cba565b5f6040518083038185875af1925050503d805f8114610539576040519150601f19603f3d011682016040523d82523d5f602084013e61053e565b606091505b505090508061057d5760405162461bcd60e51b815260206004820152600b60248201526a10d85b1b0819985a5b195960aa1b60448201526064016101f4565b50600101610486565b505050505050565b5f8060ff196105be60017f96e6e78822391813ff7d8d158046148039a355a6c1dc7bac08cb54ceeb6503d4610cd0565b6040516020016105d091815260200190565b60408051601f1981840301815291905280516020909101201692915050565b3373433709009b8330fda32311df1c2afa402ed8d009811461062f57604051637cf8632b60e01b81526001600160a01b03821660048201526024016101f4565b50565b5f61063e8484846106b4565b6106495760016103ff565b5f95945050505050565b801561062f57610672338260405180602001604052805f8152506106fa565b5050565b5f5f5f5f610684855f61070f565b61068f86600161070f565b61069a876006610747565b6106a588600a61077f565b93509350935093509193509193565b5f5f5f6106c28686866107ba565b509092509050306001600160a01b0383161480156106f057505f8160038111156106ee576106ee610ce3565b145b9695505050505050565b5f5f5f83516020850186885af1949350505050565b5f601f8260ff16111561073557604051631dd4bb1b60e11b815260040160405180910390fd5b506008021b6001600160f81b03191690565b5f601c8260ff16111561076d57604051631dd4bb1b60e11b815260040160405180910390fd5b506008021b6001600160e01b03191690565b5f600a8260ff1611156107a557604051631dd4bb1b60e11b815260040160405180910390fd5b506008021b69ffffffffffffffffffff191690565b5f808060418490036107ee578435602086013560408701355f1a6107e089828585610801565b9550955095505050506107f8565b505f915060029050825b93509350939050565b5f80807f7fffffffffffffffffffffffffffffff5d576e7357a4501ddfe92f46681b20a084111561083a57505f915060039050826108bf565b604080515f808252602082018084528a905260ff891692820192909252606081018790526080810186905260019060a0016020604051602081039080840390855afa15801561088b573d5f5f3e3d5ffd5b5050604051601f1901519150506001600160a01b0381166108b657505f9250600191508290506108bf565b92505f91508190505b9450945094915050565b80356001600160a01b03811681146108df575f5ffd5b919050565b5f5f604083850312156108f5575f5ffd5b6108fe836108c9565b946020939093013593505050565b5f5f5f6060848603121561091e575f5ffd5b833567ffffffffffffffff811115610934575f5ffd5b84016101208187031215610946575f5ffd5b95602085013595506040909401359392505050565b5f6020828403121561096b575f5ffd5b81356001600160c01b0381168114610981575f5ffd5b9392505050565b5f60208284031215610998575f5ffd5b610981826108c9565b5f602082840312156109b1575f5ffd5b5035919050565b5f5f5f604084860312156109ca575f5ffd5b83359250602084013567ffffffffffffffff8111156109e7575f5ffd5b8401601f810186136109f7575f5ffd5b803567ffffffffffffffff811115610a0d575f5ffd5b866020828401011115610a1e575f5ffd5b939660209190910195509293505050565b634e487b7160e01b5f52601160045260245ffd5b8082018082111561030257610302610a2f565b5f5f8335601e19843603018112610a6b575f5ffd5b83018035915067ffffffffffffffff821115610a85575f5ffd5b602001915036819003821315610a99575f5ffd5b9250929050565b5f60208284031215610ab0575f5ffd5b5051919050565b634e487b7160e01b5f52604160045260245ffd5b6040516060810167ffffffffffffffff81118282101715610aee57610aee610ab7565b60405290565b604051601f8201601f1916810167ffffffffffffffff81118282101715610b1d57610b1d610ab7565b604052919050565b5f60208284031215610b35575f5ffd5b813567ffffffffffffffff811115610b4b575f5ffd5b8201601f81018413610b5b575f5ffd5b803567ffffffffffffffff811115610b7557610b75610ab7565b8060051b610b8560208201610af4565b91825260208184018101929081019087841115610ba0575f5ffd5b6020850192505b83831015610c9b57823567ffffffffffffffff811115610bc5575f5ffd5b85016060818a03601f19011215610bda575f5ffd5b610be2610acb565b610bee602083016108c9565b815260408201356020820152606082013567ffffffffffffffff811115610c13575f5ffd5b60208184010192505089601f830112610c2a575f5ffd5b813567ffffffffffffffff811115610c4457610c44610ab7565b610c57601f8201601f1916602001610af4565b8181528b6020838601011115610c6b575f5ffd5b816020850160208301375f6020838301015280604084015250508084525050602082019150602083019250610ba7565b979650505050505050565b634e487b7160e01b5f52603260045260245ffd5b5f82518060208501845e5f920191825250919050565b8181038181111561030257610302610a2f565b634e487b7160e01b5f52602160045260245ffdfea264697066735822122075454928632446422783a94e24c2a82a8def0e00933102fc1280fcde377659dd64736f6c63430008230033",
  "linkReferences": {},
  "deployedLinkReferences": {},
  "immutableReferences": {},
  "inputSourceName": "project/contracts/SmartAccount.sol",
  "buildInfoId": "solc-0_8_35-7a3ea1c6c8fa93c55568529204c9cfa5b473b745"
}